{
  "abi": [
    {
      "type": "constructor",
      "inputs": [
        {
          "name": "_usdt",
          "type": "address",
          "internalType": "contract IERC20"
        },
        {
          "name": "_spaark",
          "type": "address",
          "internalType": "contract ISpaarkCoin"
        },
        {
          "name": "_vipNFT",
          "type": "address",
          "internalType": "contract ISpaarkVIPNFT"
        },
        {
          "name": "_rootAdmin",
          "type": "address",
          "internalType": "address"
        },
        {
          "name": "_admins",
          "type": "address[]",
          "internalType": "address[]"
        },
        {
          "name": "_teamDevs",
          "type": "address[]",
          "internalType": "address[]"
        },
        {
          "name": "_maints",
          "type": "address[]",
          "internalType": "address[]"
        },
        {
          "name": "_future",
          "type": "address",
          "internalType": "address"
        },
        {
          "name": "_superWallet",
          "type": "address",
          "internalType": "address"
        }
      ],
      "stateMutability": "nonpayable"
    },
    {
      "type": "function",
      "name": "DIRECT_BONUS",
      "inputs": [],
      "outputs": [
        {
          "name": "",
          "type": "uint256",
          "internalType": "uint256"
        }
      ],
      "stateMutability": "view"
    },
    {
      "type": "function",
      "name": "INITIAL_REDEMPTION",
      "inputs": [],
      "outputs": [
        {
          "name": "",
          "type": "uint256",
          "internalType": "uint256"
        }
      ],
      "stateMutability": "view"
    },
    {
      "type": "function",
      "name": "ONBOARDING_FEE",
      "inputs": [],
      "outputs": [
        {
          "name": "",
          "type": "uint256",
          "internalType": "uint256"
        }
      ],
      "stateMutability": "view"
    },
    {
      "type": "function",
      "name": "SPAARK_GRANT",
      "inputs": [],
      "outputs": [
        {
          "name": "",
          "type": "uint256",
          "internalType": "uint256"
        }
      ],
      "stateMutability": "view"
    },
    {
      "type": "function",
      "name": "TOTAL_SYSTEM_FEES",
      "inputs": [],
      "outputs": [
        {
          "name": "",
          "type": "uint256",
          "internalType": "uint256"
        }
      ],
      "stateMutability": "view"
    },
    {
      "type": "function",
      "name": "VIP_PRICE",
      "inputs": [],
      "outputs": [
        {
          "name": "",
          "type": "uint256",
          "internalType": "uint256"
        }
      ],
      "stateMutability": "view"
    },
    {
      "type": "function",
      "name": "achieverMask",
      "inputs": [
        {
          "name": "",
          "type": "address",
          "internalType": "address"
        }
      ],
      "outputs": [
        {
          "name": "",
          "type": "uint256",
          "internalType": "uint256"
        }
      ],
      "stateMutability": "view"
    },
    {
      "type": "function",
      "name": "achieverRewards",
      "inputs": [
        {
          "name": "",
          "type": "uint256",
          "internalType": "uint256"
        }
      ],
      "outputs": [
        {
          "name": "",
          "type": "uint256",
          "internalType": "uint256"
        }
      ],
      "stateMutability": "view"
    },
    {
      "type": "function",
      "name": "adminWallets",
      "inputs": [
        {
          "name": "",
          "type": "uint256",
          "internalType": "uint256"
        }
      ],
      "outputs": [
        {
          "name": "",
          "type": "address",
          "internalType": "address"
        }
      ],
      "stateMutability": "view"
    },
    {
      "type": "function",
      "name": "canWithdraw",
      "inputs": [
        {
          "name": "",
          "type": "address",
          "internalType": "address"
        }
      ],
      "outputs": [
        {
          "name": "",
          "type": "bool",
          "internalType": "bool"
        }
      ],
      "stateMutability": "view"
    },
    {
      "type": "function",
      "name": "directReferrals",
      "inputs": [
        {
          "name": "",
          "type": "address",
          "internalType": "address"
        }
      ],
      "outputs": [
        {
          "name": "",
          "type": "uint256",
          "internalType": "uint256"
        }
      ],
      "stateMutability": "view"
    },
    {
      "type": "function",
      "name": "emergencyRecover",
      "inputs": [
        {
          "name": "token",
          "type": "address",
          "internalType": "address"
        },
        {
          "name": "amount",
          "type": "uint256",
          "internalType": "uint256"
        }
      ],
      "outputs": [],
      "stateMutability": "nonpayable"
    },
    {
      "type": "function",
      "name": "futureProjectWallet",
      "inputs": [],
      "outputs": [
        {
          "name": "",
          "type": "address",
          "internalType": "address"
        }
      ],
      "stateMutability": "view"
    },
    {
      "type": "function",
      "name": "insolvencyAlarm",
      "inputs": [],
      "outputs": [
        {
          "name": "",
          "type": "bool",
          "internalType": "bool"
        }
      ],
      "stateMutability": "view"
    },
    {
      "type": "function",
      "name": "levelCommission",
      "inputs": [
        {
          "name": "",
          "type": "uint256",
          "internalType": "uint256"
        }
      ],
      "outputs": [
        {
          "name": "",
          "type": "uint256",
          "internalType": "uint256"
        }
      ],
      "stateMutability": "view"
    },
    {
      "type": "function",
      "name": "maxFutureRewards",
      "inputs": [],
      "outputs": [
        {
          "name": "",
          "type": "uint256",
          "internalType": "uint256"
        }
      ],
      "stateMutability": "view"
    },
    {
      "type": "function",
      "name": "mintVIP",
      "inputs": [
        {
          "name": "metadataURI",
          "type": "string",
          "internalType": "string"
        }
      ],
      "outputs": [],
      "stateMutability": "nonpayable"
    },
    {
      "type": "function",
      "name": "mlmTreasury",
      "inputs": [],
      "outputs": [
        {
          "name": "",
          "type": "uint256",
          "internalType": "uint256"
        }
      ],
      "stateMutability": "view"
    },
    {
      "type": "function",
      "name": "owner",
      "inputs": [],
      "outputs": [
        {
          "name": "",
          "type": "address",
          "internalType": "address"
        }
      ],
      "stateMutability": "view"
    },
    {
      "type": "function",
      "name": "pause",
      "inputs": [],
      "outputs": [],
      "stateMutability": "nonpayable"
    },
    {
      "type": "function",
      "name": "paused",
      "inputs": [],
      "outputs": [
        {
          "name": "",
          "type": "bool",
          "internalType": "bool"
        }
      ],
      "stateMutability": "view"
    },
    {
      "type": "function",
      "name": "referrerOf",
      "inputs": [
        {
          "name": "",
          "type": "address",
          "internalType": "address"
        }
      ],
      "outputs": [
        {
          "name": "",
          "type": "address",
          "internalType": "address"
        }
      ],
      "stateMutability": "view"
    },
    {
      "type": "function",
      "name": "register",
      "inputs": [
        {
          "name": "referrer",
          "type": "address",
          "internalType": "address"
        }
      ],
      "outputs": [],
      "stateMutability": "nonpayable"
    },
    {
      "type": "function",
      "name": "registered",
      "inputs": [
        {
          "name": "",
          "type": "address",
          "internalType": "address"
        }
      ],
      "outputs": [
        {
          "name": "",
          "type": "bool",
          "internalType": "bool"
        }
      ],
      "stateMutability": "view"
    },
    {
      "type": "function",
      "name": "remainingTreasury",
      "inputs": [],
      "outputs": [
        {
          "name": "",
          "type": "uint256",
          "internalType": "uint256"
        }
      ],
      "stateMutability": "view"
    },
    {
      "type": "function",
      "name": "renounceOwnership",
      "inputs": [],
      "outputs": [],
      "stateMutability": "nonpayable"
    },
    {
      "type": "function",
      "name": "spaark",
      "inputs": [],
      "outputs": [
        {
          "name": "",
          "type": "address",
          "internalType": "contract ISpaarkCoin"
        }
      ],
      "stateMutability": "view"
    },
    {
      "type": "function",
      "name": "superWallet",
      "inputs": [],
      "outputs": [
        {
          "name": "",
          "type": "address",
          "internalType": "address"
        }
      ],
      "stateMutability": "view"
    },
    {
      "type": "function",
      "name": "systemMaintWallets",
      "inputs": [
        {
          "name": "",
          "type": "uint256",
          "internalType": "uint256"
        }
      ],
      "outputs": [
        {
          "name": "",
          "type": "address",
          "internalType": "address"
        }
      ],
      "stateMutability": "view"
    },
    {
      "type": "function",
      "name": "teamDevWallets",
      "inputs": [
        {
          "name": "",
          "type": "uint256",
          "internalType": "uint256"
        }
      ],
      "outputs": [
        {
          "name": "",
          "type": "address",
          "internalType": "address"
        }
      ],
      "stateMutability": "view"
    },
    {
      "type": "function",
      "name": "totalLiabilities",
      "inputs": [],
      "outputs": [
        {
          "name": "",
          "type": "uint256",
          "internalType": "uint256"
        }
      ],
      "stateMutability": "view"
    },
    {
      "type": "function",
      "name": "totalTeamSize",
      "inputs": [
        {
          "name": "",
          "type": "address",
          "internalType": "address"
        }
      ],
      "outputs": [
        {
          "name": "",
          "type": "uint256",
          "internalType": "uint256"
        }
      ],
      "stateMutability": "view"
    },
    {
      "type": "function",
      "name": "transferOwnership",
      "inputs": [
        {
          "name": "newOwner",
          "type": "address",
          "internalType": "address"
        }
      ],
      "outputs": [],
      "stateMutability": "nonpayable"
    },
    {
      "type": "function",
      "name": "unpause",
      "inputs": [],
      "outputs": [],
      "stateMutability": "nonpayable"
    },
    {
      "type": "function",
      "name": "updateAdminWallet",
      "inputs": [
        {
          "name": "index",
          "type": "uint256",
          "internalType": "uint256"
        },
        {
          "name": "newWallet",
          "type": "address",
          "internalType": "address"
        }
      ],
      "outputs": [],
      "stateMutability": "nonpayable"
    },
    {
      "type": "function",
      "name": "updateFutureWallet",
      "inputs": [
        {
          "name": "newWallet",
          "type": "address",
          "internalType": "address"
        }
      ],
      "outputs": [],
      "stateMutability": "nonpayable"
    },
    {
      "type": "function",
      "name": "updateMaintWallet",
      "inputs": [
        {
          "name": "index",
          "type": "uint256",
          "internalType": "uint256"
        },
        {
          "name": "newWallet",
          "type": "address",
          "internalType": "address"
        }
      ],
      "outputs": [],
      "stateMutability": "nonpayable"
    },
    {
      "type": "function",
      "name": "updateSuperWallet",
      "inputs": [
        {
          "name": "newWallet",
          "type": "address",
          "internalType": "address"
        }
      ],
      "outputs": [],
      "stateMutability": "nonpayable"
    },
    {
      "type": "function",
      "name": "updateTeamDevWallet",
      "inputs": [
        {
          "name": "index",
          "type": "uint256",
          "internalType": "uint256"
        },
        {
          "name": "newWallet",
          "type": "address",
          "internalType": "address"
        }
      ],
      "outputs": [],
      "stateMutability": "nonpayable"
    },
    {
      "type": "function",
      "name": "usdt",
      "inputs": [],
      "outputs": [
        {
          "name": "",
          "type": "address",
          "internalType": "contract IERC20"
        }
      ],
      "stateMutability": "view"
    },
    {
      "type": "function",
      "name": "usdtEarnings",
      "inputs": [
        {
          "name": "",
          "type": "address",
          "internalType": "address"
        }
      ],
      "outputs": [
        {
          "name": "",
          "type": "uint256",
          "internalType": "uint256"
        }
      ],
      "stateMutability": "view"
    },
    {
      "type": "function",
      "name": "vipNFT",
      "inputs": [],
      "outputs": [
        {
          "name": "",
          "type": "address",
          "internalType": "contract ISpaarkVIPNFT"
        }
      ],
      "stateMutability": "view"
    },
    {
      "type": "function",
      "name": "withdrawUSDT",
      "inputs": [],
      "outputs": [],
      "stateMutability": "nonpayable"
    },
    {
      "type": "event",
      "name": "EmergencyRecovery",
      "inputs": [
        {
          "name": "token",
          "type": "address",
          "indexed": true,
          "internalType": "address"
        },
        {
          "name": "amount",
          "type": "uint256",
          "indexed": false,
          "internalType": "uint256"
        }
      ],
      "anonymous": false
    },
    {
      "type": "event",
      "name": "FeesDistributed",
      "inputs": [
        {
          "name": "amount",
          "type": "uint256",
          "indexed": false,
          "internalType": "uint256"
        }
      ],
      "anonymous": false
    },
    {
      "type": "event",
      "name": "InsolvencyDetected",
      "inputs": [
        {
          "name": "deficit",
          "type": "uint256",
          "indexed": false,
          "internalType": "uint256"
        }
      ],
      "anonymous": false
    },
    {
      "type": "event",
      "name": "OwnershipTransferred",
      "inputs": [
        {
          "name": "previousOwner",
          "type": "address",
          "indexed": true,
          "internalType": "address"
        },
        {
          "name": "newOwner",
          "type": "address",
          "indexed": true,
          "internalType": "address"
        }
      ],
      "anonymous": false
    },
    {
      "type": "event",
      "name": "Paused",
      "inputs": [
        {
          "name": "account",
          "type": "address",
          "indexed": false,
          "internalType": "address"
        }
      ],
      "anonymous": false
    },
    {
      "type": "event",
      "name": "Registered",
      "inputs": [
        {
          "name": "user",
          "type": "address",
          "indexed": true,
          "internalType": "address"
        },
        {
          "name": "referrer",
          "type": "address",
          "indexed": true,
          "internalType": "address"
        }
      ],
      "anonymous": false
    },
    {
      "type": "event",
      "name": "RewardAllocated",
      "inputs": [
        {
          "name": "user",
          "type": "address",
          "indexed": true,
          "internalType": "address"
        },
        {
          "name": "amount",
          "type": "uint256",
          "indexed": false,
          "internalType": "uint256"
        }
      ],
      "anonymous": false
    },
    {
      "type": "event",
      "name": "RewardSkipped",
      "inputs": [
        {
          "name": "user",
          "type": "address",
          "indexed": true,
          "internalType": "address"
        },
        {
          "name": "amount",
          "type": "uint256",
          "indexed": false,
          "internalType": "uint256"
        },
        {
          "name": "reason",
          "type": "string",
          "indexed": false,
          "internalType": "string"
        }
      ],
      "anonymous": false
    },
    {
      "type": "event",
      "name": "Unpaused",
      "inputs": [
        {
          "name": "account",
          "type": "address",
          "indexed": false,
          "internalType": "address"
        }
      ],
      "anonymous": false
    },
    {
      "type": "event",
      "name": "VIPMinted",
      "inputs": [
        {
          "name": "user",
          "type": "address",
          "indexed": true,
          "internalType": "address"
        },
        {
          "name": "price",
          "type": "uint256",
          "indexed": false,
          "internalType": "uint256"
        }
      ],
      "anonymous": false
    },
    {
      "type": "event",
      "name": "WalletUpdated",
      "inputs": [
        {
          "name": "role",
          "type": "string",
          "indexed": false,
          "internalType": "string"
        },
        {
          "name": "index",
          "type": "uint256",
          "indexed": false,
          "internalType": "uint256"
        },
        {
          "name": "newWallet",
          "type": "address",
          "indexed": false,
          "internalType": "address"
        }
      ],
      "anonymous": false
    },
    {
      "type": "error",
      "name": "EnforcedPause",
      "inputs": []
    },
    {
      "type": "error",
      "name": "ExpectedPause",
      "inputs": []
    },
    {
      "type": "error",
      "name": "OwnableInvalidOwner",
      "inputs": [
        {
          "name": "owner",
          "type": "address",
          "internalType": "address"
        }
      ]
    },
    {
      "type": "error",
      "name": "OwnableUnauthorizedAccount",
      "inputs": [
        {
          "name": "account",
          "type": "address",
          "internalType": "address"
        }
      ]
    },
    {
      "type": "error",
      "name": "ReentrancyGuardReentrantCall",
      "inputs": []
    },
    {
      "type": "error",
      "name": "SafeERC20FailedOperation",
      "inputs": [
        {
          "name": "token",
          "type": "address",
          "internalType": "address"
        }
      ]
    }
  ],
  "bytecode": {
    "object": "0x60e06040526040518060c00160405280620d59f862ffffff168152602001620d59f862ffffff168152602001621406f462ffffff168152602001621406f462ffffff168152602001621ab3f062ffffff16815260200162280de862ffffff168152506006906006610071929190610736565b506040518060c0016040528062249f0064ffffffffff16815260200162a4cb8064ffffffffff168152602001630337f98064ffffffffff168152602001630f73140064ffffffffff168152602001635cb2780064ffffffffff1681526020016401a1231c0064ffffffffff16815250600c9060066100f092919061077d565b503480156100fc575f5ffd5b50604051614e25380380614e25833981810160405281019061011e9190610ad4565b335f73ffffffffffffffffffffffffffffffffffffffff168173ffffffffffffffffffffffffffffffffffffffff160361018f575f6040517f1e4fbdf70000000000000000000000000000000000000000000000000000000081526004016101869190610bfb565b60405180910390fd5b61019e8161051560201b60201c565b5060016101bd6101b26105d660201b60201c565b6105ff60201b60201c565b5f018190555060068973ffffffffffffffffffffffffffffffffffffffff1663313ce5676040518163ffffffff1660e01b8152600401602060405180830381865afa15801561020e573d5f5f3e3d5ffd5b505050506040513d601f19601f820116820180604052508101906102329190610c4a565b60ff1614610275576040517f08c379a000000000000000000000000000000000000000000000000000000000815260040161026c90610ccf565b60405180910390fd5b60038551148015610287575060038451145b8015610294575060038351145b6102d3576040517f08c379a00000000000000000000000000000000000000000000000000000000081526004016102ca90610d37565b60405180910390fd5b5f73ffffffffffffffffffffffffffffffffffffffff168173ffffffffffffffffffffffffffffffffffffffff1603610341576040517f08c379a000000000000000000000000000000000000000000000000000000000815260040161033890610d9f565b60405180910390fd5b8873ffffffffffffffffffffffffffffffffffffffff1660808173ffffffffffffffffffffffffffffffffffffffff16815250508773ffffffffffffffffffffffffffffffffffffffff1660a08173ffffffffffffffffffffffffffffffffffffffff16815250508673ffffffffffffffffffffffffffffffffffffffff1660c08173ffffffffffffffffffffffffffffffffffffffff168152505084600190805190602001906103f39291906107c6565b50836002908051906020019061040a9291906107c6565b5082600390805190602001906104219291906107c6565b508160045f6101000a81548173ffffffffffffffffffffffffffffffffffffffff021916908373ffffffffffffffffffffffffffffffffffffffff1602179055508060055f6101000a81548173ffffffffffffffffffffffffffffffffffffffff021916908373ffffffffffffffffffffffffffffffffffffffff1602179055506104b2865f61060860201b60201c565b6001601b5f8873ffffffffffffffffffffffffffffffffffffffff1673ffffffffffffffffffffffffffffffffffffffff1681526020019081526020015f205f6101000a81548160ff021916908315150217905550505050505050505050610dbd565b5f5f5f9054906101000a900473ffffffffffffffffffffffffffffffffffffffff169050815f5f6101000a81548173ffffffffffffffffffffffffffffffffffffffff021916908373ffffffffffffffffffffffffffffffffffffffff1602179055508173ffffffffffffffffffffffffffffffffffffffff168173ffffffffffffffffffffffffffffffffffffffff167f8be0079c531659141344cd1fd0a4f28419497f9722a3daafe3b4186f6b6457e060405160405180910390a35050565b5f7f9b779b17422d0df92223018b32b4d1fa46e071723d6817e2486d003becc55f005f1b905090565b5f819050919050565b600160155f8473ffffffffffffffffffffffffffffffffffffffff1673ffffffffffffffffffffffffffffffffffffffff1681526020019081526020015f205f6101000a81548160ff0219169083151502179055508060165f8473ffffffffffffffffffffffffffffffffffffffff1673ffffffffffffffffffffffffffffffffffffffff1681526020019081526020015f205f6101000a81548173ffffffffffffffffffffffffffffffffffffffff021916908373ffffffffffffffffffffffffffffffffffffffff1602179055508073ffffffffffffffffffffffffffffffffffffffff168273ffffffffffffffffffffffffffffffffffffffff167f0a31ee9d46a828884b81003c8498156ea6aa15b9b54bdd0ef0b533d9eba57e5560405160405180910390a35050565b826006810192821561076c579160200282015b8281111561076b578251829062ffffff16905591602001919060010190610749565b5b509050610779919061084d565b5090565b82600681019282156107b5579160200282015b828111156107b4578251829064ffffffffff16905591602001919060010190610790565b5b5090506107c2919061084d565b5090565b828054828255905f5260205f2090810192821561083c579160200282015b8281111561083b578251825f6101000a81548173ffffffffffffffffffffffffffffffffffffffff021916908373ffffffffffffffffffffffffffffffffffffffff160217905550916020019190600101906107e4565b5b509050610849919061084d565b5090565b5b80821115610864575f815f90555060010161084e565b5090565b5f604051905090565b5f5ffd5b5f5ffd5b5f73ffffffffffffffffffffffffffffffffffffffff82169050919050565b5f6108a282610879565b9050919050565b5f6108b382610898565b9050919050565b6108c3816108a9565b81146108cd575f5ffd5b50565b5f815190506108de816108ba565b92915050565b5f6108ee82610898565b9050919050565b6108fe816108e4565b8114610908575f5ffd5b50565b5f81519050610919816108f5565b92915050565b5f61092982610898565b9050919050565b6109398161091f565b8114610943575f5ffd5b50565b5f8151905061095481610930565b92915050565b61096381610898565b811461096d575f5ffd5b50565b5f8151905061097e8161095a565b92915050565b5f5ffd5b5f601f19601f8301169050919050565b7f4e487b71000000000000000000000000000000000000000000000000000000005f52604160045260245ffd5b6109ce82610988565b810181811067ffffffffffffffff821117156109ed576109ec610998565b5b80604052505050565b5f6109ff610868565b9050610a0b82826109c5565b919050565b5f67ffffffffffffffff821115610a2a57610a29610998565b5b602082029050602081019050919050565b5f5ffd5b5f610a51610a4c84610a10565b6109f6565b90508083825260208201905060208402830185811115610a7457610a73610a3b565b5b835b81811015610a9d5780610a898882610970565b845260208401935050602081019050610a76565b5050509392505050565b5f82601f830112610abb57610aba610984565b5b8151610acb848260208601610a3f565b91505092915050565b5f5f5f5f5f5f5f5f5f6101208a8c031215610af257610af1610871565b5b5f610aff8c828d016108d0565b9950506020610b108c828d0161090b565b9850506040610b218c828d01610946565b9750506060610b328c828d01610970565b96505060808a015167ffffffffffffffff811115610b5357610b52610875565b5b610b5f8c828d01610aa7565b95505060a08a015167ffffffffffffffff811115610b8057610b7f610875565b5b610b8c8c828d01610aa7565b94505060c08a015167ffffffffffffffff811115610bad57610bac610875565b5b610bb98c828d01610aa7565b93505060e0610bca8c828d01610970565b925050610100610bdc8c828d01610970565b9150509295985092959850929598565b610bf581610898565b82525050565b5f602082019050610c0e5f830184610bec565b92915050565b5f60ff82169050919050565b610c2981610c14565b8114610c33575f5ffd5b50565b5f81519050610c4481610c20565b92915050565b5f60208284031215610c5f57610c5e610871565b5b5f610c6c84828501610c36565b91505092915050565b5f82825260208201905092915050565b7f55534454206d757374206265203620646563696d616c730000000000000000005f82015250565b5f610cb9601783610c75565b9150610cc482610c85565b602082019050919050565b5f6020820190508181035f830152610ce681610cad565b9050919050565b7f496e76616c69642077616c6c657420636f6e66696700000000000000000000005f82015250565b5f610d21601583610c75565b9150610d2c82610ced565b602082019050919050565b5f6020820190508181035f830152610d4e81610d15565b9050919050565b7f496e76616c69642053757065722057616c6c65740000000000000000000000005f82015250565b5f610d89601483610c75565b9150610d9482610d55565b602082019050919050565b5f6020820190508181035f830152610db681610d7d565b9050919050565b60805160a05160c051613fa4610e815f395f81816113f8015281816115fb01526118c401525f81816111650152611deb01525f8181610873015281816109ef01528181610b2701528181610dce01528181610e7201528181610ebf01528181610fa201528181611045015281816116d401528181611777015281816117bf015281816120860152818161211b015281816121b10152818161224e015281816122d50152818161237d0152818161241401528181612491015261250c0152613fa45ff3fe608060405234801561000f575f5ffd5b5060043610610267575f3560e01c80638da5cb5b1161014f578063c8be4d9d116100c1578063f2a5a95711610085578063f2a5a95714610729578063f2fde38b14610745578063f4dcebb014610761578063f671e1be1461077f578063f73579a91461079d578063fe8592ab146107bb57610267565b8063c8be4d9d14610683578063d11e20c2146106a1578063d21cacdf146106bf578063d9c2ec65146106ef578063dc561f841461070b57610267565b8063b014aa4911610113578063b014aa49146105af578063b2dd5c07146105cd578063b3159436146105fd578063b42091de1461062d578063b8f2f0df14610649578063c3fc7d241461066557610267565b80638da5cb5b1461051d5780639639011e1461053b5780639feb1cb914610557578063a39e7e2314610575578063aa738d351461059157610267565b80633f4ba83a116101e857806370c01d06116101ac57806370c01d061461045b578063715018a61461048b5780638422917b146104955780638456cb59146104b357806389ed710e146104bd5780638cebe6bc146104ed57610267565b80633f4ba83a146103c95780634145bd53146103d35780634420e486146103f15780635c975abb1461040d578063614177941461042b57610267565b80632c8980491161022f5780632c898049146103375780632f48ab7d146103555780633216b1f914610373578063362e496b146103a35780633f33e8ba146103ad57610267565b80630fedfe8b1461026b57806319262d301461029b5780631e756e03146102cb57806324dd80ae146102e95780632a8f4cd114610319575b5f5ffd5b61028560048036038101906102809190613011565b6107eb565b604051610292919061304b565b60405180910390f35b6102b560048036038101906102b091906130be565b610804565b6040516102c29190613103565b60405180910390f35b6102d3610821565b6040516102e0919061312b565b60405180910390f35b61030360048036038101906102fe91906130be565b610846565b604051610310919061304b565b60405180910390f35b61032161085b565b60405161032e919061304b565b60405180910390f35b61033f610869565b60405161034c919061304b565b60405180910390f35b61035d610871565b60405161036a919061319f565b60405180910390f35b61038d60048036038101906103889190613011565b610895565b60405161039a919061312b565b60405180910390f35b6103ab6108d0565b005b6103c760048036038101906103c291906131b8565b610b76565b005b6103d1610c90565b005b6103db610ca2565b6040516103e8919061304b565b60405180910390f35b61040b600480360381019061040691906130be565b610ca8565b005b610415611267565b6040516104229190613103565b60405180910390f35b610445600480360381019061044091906130be565b61127c565b604051610452919061304b565b60405180910390f35b610475600480360381019061047091906130be565b611291565b604051610482919061304b565b60405180910390f35b6104936112a6565b005b61049d6112b9565b6040516104aa919061304b565b60405180910390f35b6104bb6112c2565b005b6104d760048036038101906104d29190613011565b6112d4565b6040516104e4919061312b565b60405180910390f35b61050760048036038101906105029190613011565b61130f565b604051610514919061312b565b60405180910390f35b61052561134a565b604051610532919061312b565b60405180910390f35b610555600480360381019061055091906131f6565b611371565b005b61055f6113f6565b60405161056c9190613254565b60405180910390f35b61058f600480360381019061058a91906130be565b61141a565b005b61059961150c565b6040516105a6919061304b565b60405180910390f35b6105b7611514565b6040516105c4919061304b565b60405180910390f35b6105e760048036038101906105e291906130be565b61152a565b6040516105f49190613103565b60405180910390f35b61061760048036038101906106129190613011565b611547565b604051610624919061304b565b60405180910390f35b610647600480360381019061064291906132ce565b611560565b005b610663600480360381019061065e91906130be565b6119ab565b005b61066d611a9d565b60405161067a919061312b565b60405180910390f35b61068b611ac2565b604051610698919061304b565b60405180910390f35b6106a9611ac9565b6040516106b69190613103565b60405180910390f35b6106d960048036038101906106d491906130be565b611adb565b6040516106e6919061312b565b60405180910390f35b610709600480360381019061070491906131b8565b611b0b565b005b610713611c25565b604051610720919061304b565b60405180910390f35b610743600480360381019061073e91906131b8565b611c38565b005b61075f600480360381019061075a91906130be565b611d52565b005b610769611dd6565b604051610776919061304b565b60405180910390f35b610787611de9565b6040516107949190613339565b60405180910390f35b6107a5611e0d565b6040516107b2919061304b565b60405180910390f35b6107d560048036038101906107d091906130be565b611e13565b6040516107e2919061304b565b60405180910390f35b600681600681106107fa575f80fd5b015f915090505481565b601b602052805f5260405f205f915054906101000a900460ff1681565b60045f9054906101000a900473ffffffffffffffffffffffffffffffffffffffff1681565b6017602052805f5260405f205f915090505481565b6901e7e4171bf4d3a0000081565b63016a657081565b7f000000000000000000000000000000000000000000000000000000000000000081565b600181815481106108a4575f80fd5b905f5260205f20015f915054906101000a900473ffffffffffffffffffffffffffffffffffffffff1681565b6108d8611e28565b6108e0611e4a565b601b5f3373ffffffffffffffffffffffffffffffffffffffff1673ffffffffffffffffffffffffffffffffffffffff1681526020019081526020015f205f9054906101000a900460ff16610969576040517f08c379a0000000000000000000000000000000000000000000000000000000008152600401610960906133d2565b60405180910390fd5b5f60195f3373ffffffffffffffffffffffffffffffffffffffff1673ffffffffffffffffffffffffffffffffffffffff1681526020019081526020015f205490505f81116109ec576040517f08c379a00000000000000000000000000000000000000000000000000000000081526004016109e39061343a565b60405180910390fd5b807f000000000000000000000000000000000000000000000000000000000000000073ffffffffffffffffffffffffffffffffffffffff166370a08231306040518263ffffffff1660e01b8152600401610a46919061312b565b602060405180830381865afa158015610a61573d5f5f3e3d5ffd5b505050506040513d601f19601f82011682018060405250810190610a85919061346c565b1015610ac6576040517f08c379a0000000000000000000000000000000000000000000000000000000008152600401610abd906134e1565b60405180910390fd5b5f60195f3373ffffffffffffffffffffffffffffffffffffffff1673ffffffffffffffffffffffffffffffffffffffff1681526020019081526020015f20819055508060135f828254610b19919061352c565b92505081905550610b6b33827f000000000000000000000000000000000000000000000000000000000000000073ffffffffffffffffffffffffffffffffffffffff16611e8b9092919063ffffffff16565b50610b74611ede565b565b610b7e611ef8565b600382108015610bba57505f73ffffffffffffffffffffffffffffffffffffffff168173ffffffffffffffffffffffffffffffffffffffff1614155b610bf9576040517f08c379a0000000000000000000000000000000000000000000000000000000008152600401610bf0906135a9565b60405180910390fd5b8060018381548110610c0e57610c0d6135c7565b5b905f5260205f20015f6101000a81548173ffffffffffffffffffffffffffffffffffffffff021916908373ffffffffffffffffffffffffffffffffffffffff1602179055507f279dd5bee2249c87c5d21482a6d1d8256b0fa9e3b87fa35881282b5680c86d6d8282604051610c8492919061363e565b60405180910390a15050565b610c98611ef8565b610ca0611f7f565b565b60125481565b610cb0611e28565b610cb8611e4a565b60155f3373ffffffffffffffffffffffffffffffffffffffff1673ffffffffffffffffffffffffffffffffffffffff1681526020019081526020015f205f9054906101000a900460ff1615610d42576040517f08c379a0000000000000000000000000000000000000000000000000000000008152600401610d39906136c2565b60405180910390fd5b60155f8273ffffffffffffffffffffffffffffffffffffffff1673ffffffffffffffffffffffffffffffffffffffff1681526020019081526020015f205f9054906101000a900460ff16610dcb576040517f08c379a0000000000000000000000000000000000000000000000000000000008152600401610dc29061372a565b60405180910390fd5b5f7f000000000000000000000000000000000000000000000000000000000000000073ffffffffffffffffffffffffffffffffffffffff166370a08231306040518263ffffffff1660e01b8152600401610e25919061312b565b602060405180830381865afa158015610e40573d5f5f3e3d5ffd5b505050506040513d601f19601f82011682018060405250810190610e64919061346c565b9050610eb7333063037ca3a07f000000000000000000000000000000000000000000000000000000000000000073ffffffffffffffffffffffffffffffffffffffff16611fe0909392919063ffffffff16565b63037ca3a0817f000000000000000000000000000000000000000000000000000000000000000073ffffffffffffffffffffffffffffffffffffffff166370a08231306040518263ffffffff1660e01b8152600401610f16919061312b565b602060405180830381865afa158015610f31573d5f5f3e3d5ffd5b505050506040513d601f19601f82011682018060405250810190610f55919061346c565b610f5f919061352c565b14610f9f576040517f08c379a0000000000000000000000000000000000000000000000000000000008152600401610f9690613792565b60405180910390fd5b5f7f000000000000000000000000000000000000000000000000000000000000000073ffffffffffffffffffffffffffffffffffffffff166370a08231306040518263ffffffff1660e01b8152600401610ff9919061312b565b602060405180830381865afa158015611014573d5f5f3e3d5ffd5b505050506040513d601f19601f82011682018060405250810190611038919061346c565b9050611042612035565b5f7f000000000000000000000000000000000000000000000000000000000000000073ffffffffffffffffffffffffffffffffffffffff166370a08231306040518263ffffffff1660e01b815260040161109c919061312b565b602060405180830381865afa1580156110b7573d5f5f3e3d5ffd5b505050506040513d601f19601f820116820180604052508101906110db919061346c565b905063016a657081836110ee919061352c565b1461112e576040517f08c379a0000000000000000000000000000000000000000000000000000000008152600401611125906137fa565b60405180910390fd5b63016a657063037ca3a0611142919061352c565b60125f8282546111529190613818565b92505081905550611163338561258f565b7f000000000000000000000000000000000000000000000000000000000000000073ffffffffffffffffffffffffffffffffffffffff166340c10f19336901e7e4171bf4d3a000006040518363ffffffff1660e01b81526004016111c892919061384b565b5f604051808303815f87803b1580156111df575f5ffd5b505af11580156111f1573d5f5f3e3d5ffd5b5050505060175f8573ffffffffffffffffffffffffffffffffffffffff1673ffffffffffffffffffffffffffffffffffffffff1681526020019081526020015f205f81548092919061124290613872565b9190505550611250846126bd565b611259336127c9565b505050611264611ede565b50565b5f5f60149054906101000a900460ff16905090565b6019602052805f5260405f205f915090505481565b6018602052805f5260405f205f915090505481565b6112ae611ef8565b6112b75f6129d1565b565b5f601254905090565b6112ca611ef8565b6112d2612a92565b565b600281815481106112e3575f80fd5b905f5260205f20015f915054906101000a900473ffffffffffffffffffffffffffffffffffffffff1681565b6003818154811061131e575f80fd5b905f5260205f20015f915054906101000a900473ffffffffffffffffffffffffffffffffffffffff1681565b5f5f5f9054906101000a900473ffffffffffffffffffffffffffffffffffffffff16905090565b611379611ef8565b6113a433828473ffffffffffffffffffffffffffffffffffffffff16611e8b9092919063ffffffff16565b8173ffffffffffffffffffffffffffffffffffffffff167fa9364fb2836862098c2b593d2d3f46759b4c6d5b054300f96172b0394430008a826040516113ea919061304b565b60405180910390a25050565b7f000000000000000000000000000000000000000000000000000000000000000081565b611422611ef8565b5f73ffffffffffffffffffffffffffffffffffffffff168173ffffffffffffffffffffffffffffffffffffffff1603611490576040517f08c379a0000000000000000000000000000000000000000000000000000000008152600401611487906135a9565b60405180910390fd5b8060045f6101000a81548173ffffffffffffffffffffffffffffffffffffffff021916908373ffffffffffffffffffffffffffffffffffffffff1602179055507f279dd5bee2249c87c5d21482a6d1d8256b0fa9e3b87fa35881282b5680c86d6d5f8260405161150192919061393c565b60405180910390a150565b63037ca3a081565b5f6013546012546115259190613818565b905090565b6015602052805f5260405f205f915054906101000a900460ff1681565b600c8160068110611556575f80fd5b015f915090505481565b611568611e28565b611570611e4a565b60155f3373ffffffffffffffffffffffffffffffffffffffff1673ffffffffffffffffffffffffffffffffffffffff1681526020019081526020015f205f9054906101000a900460ff166115f9576040517f08c379a00000000000000000000000000000000000000000000000000000000081526004016115f0906139c0565b60405180910390fd5b7f000000000000000000000000000000000000000000000000000000000000000073ffffffffffffffffffffffffffffffffffffffff166359abfb80336040518263ffffffff1660e01b8152600401611652919061312b565b602060405180830381865afa15801561166d573d5f5f3e3d5ffd5b505050506040513d601f19601f820116820180604052508101906116919190613a08565b156116d1576040517f08c379a00000000000000000000000000000000000000000000000000000000081526004016116c890613a7d565b60405180910390fd5b5f7f000000000000000000000000000000000000000000000000000000000000000073ffffffffffffffffffffffffffffffffffffffff166370a08231306040518263ffffffff1660e01b815260040161172b919061312b565b602060405180830381865afa158015611746573d5f5f3e3d5ffd5b505050506040513d601f19601f8201168201806040525081019061176a919061346c565b90506117bc3330629896807f000000000000000000000000000000000000000000000000000000000000000073ffffffffffffffffffffffffffffffffffffffff16611fe0909392919063ffffffff16565b5f7f000000000000000000000000000000000000000000000000000000000000000073ffffffffffffffffffffffffffffffffffffffff166370a08231306040518263ffffffff1660e01b8152600401611816919061312b565b602060405180830381865afa158015611831573d5f5f3e3d5ffd5b505050506040513d601f19601f82011682018060405250810190611855919061346c565b9050629896808282611867919061352c565b146118a7576040517f08c379a000000000000000000000000000000000000000000000000000000000815260040161189e90613792565b60405180910390fd5b6298968060125f8282546118bb9190613818565b925050819055507f000000000000000000000000000000000000000000000000000000000000000073ffffffffffffffffffffffffffffffffffffffff1663634a41643386866040518463ffffffff1660e01b815260040161191f93929190613ae5565b5f604051808303815f87803b158015611936575f5ffd5b505af1158015611948573d5f5f3e3d5ffd5b505050503373ffffffffffffffffffffffffffffffffffffffff167f6ee600df88777d1290b84060ff2ba06df1e2b665c543a10b5c7f09b87f72b12962989680604051611995919061304b565b60405180910390a250506119a7611ede565b5050565b6119b3611ef8565b5f73ffffffffffffffffffffffffffffffffffffffff168173ffffffffffffffffffffffffffffffffffffffff1603611a21576040517f08c379a0000000000000000000000000000000000000000000000000000000008152600401611a18906135a9565b60405180910390fd5b8060055f6101000a81548173ffffffffffffffffffffffffffffffffffffffff021916908373ffffffffffffffffffffffffffffffffffffffff1602179055507f279dd5bee2249c87c5d21482a6d1d8256b0fa9e3b87fa35881282b5680c86d6d5f82604051611a92929190613b5f565b60405180910390a150565b60055f9054906101000a900473ffffffffffffffffffffffffffffffffffffffff1681565b6298968081565b60145f9054906101000a900460ff1681565b6016602052805f5260405f205f915054906101000a900473ffffffffffffffffffffffffffffffffffffffff1681565b611b13611ef8565b600382108015611b4f57505f73ffffffffffffffffffffffffffffffffffffffff168173ffffffffffffffffffffffffffffffffffffffff1614155b611b8e576040517f08c379a0000000000000000000000000000000000000000000000000000000008152600401611b85906135a9565b60405180910390fd5b8060028381548110611ba357611ba26135c7565b5b905f5260205f20015f6101000a81548173ffffffffffffffffffffffffffffffffffffffff021916908373ffffffffffffffffffffffffffffffffffffffff1602179055507f279dd5bee2249c87c5d21482a6d1d8256b0fa9e3b87fa35881282b5680c86d6d8282604051611c19929190613be3565b60405180910390a15050565b620f4240600a611c359190613c1d565b81565b611c40611ef8565b600382108015611c7c57505f73ffffffffffffffffffffffffffffffffffffffff168173ffffffffffffffffffffffffffffffffffffffff1614155b611cbb576040517f08c379a0000000000000000000000000000000000000000000000000000000008152600401611cb2906135a9565b60405180910390fd5b8060038381548110611cd057611ccf6135c7565b5b905f5260205f20015f6101000a81548173ffffffffffffffffffffffffffffffffffffffff021916908373ffffffffffffffffffffffffffffffffffffffff1602179055507f279dd5bee2249c87c5d21482a6d1d8256b0fa9e3b87fa35881282b5680c86d6d8282604051611d46929190613ca8565b60405180910390a15050565b611d5a611ef8565b5f73ffffffffffffffffffffffffffffffffffffffff168173ffffffffffffffffffffffffffffffffffffffff1603611dca575f6040517f1e4fbdf7000000000000000000000000000000000000000000000000000000008152600401611dc1919061312b565b60405180910390fd5b611dd3816129d1565b50565b620f4240600f611de69190613c1d565b81565b7f000000000000000000000000000000000000000000000000000000000000000081565b60135481565b601a602052805f5260405f205f915090505481565b611e30612af4565b6002611e42611e3d612b35565b612b5e565b5f0181905550565b611e52611267565b15611e89576040517fd93c066500000000000000000000000000000000000000000000000000000000815260040160405180910390fd5b565b611e988383836001612b67565b611ed957826040517f5274afe7000000000000000000000000000000000000000000000000000000008152600401611ed0919061312b565b60405180910390fd5b505050565b6001611ef0611eeb612b35565b612b5e565b5f0181905550565b611f00612bc9565b73ffffffffffffffffffffffffffffffffffffffff16611f1e61134a565b73ffffffffffffffffffffffffffffffffffffffff1614611f7d57611f41612bc9565b6040517f118cdaa7000000000000000000000000000000000000000000000000000000008152600401611f74919061312b565b60405180910390fd5b565b611f87612bd0565b5f5f60146101000a81548160ff0219169083151502179055507f5db9ee0a495bf2e6ff9c91a7834c1ba4fdd244a5e8aa4e537bd38aeae4b073aa611fc9612bc9565b604051611fd6919061312b565b60405180910390a1565b611fee848484846001612c10565b61202f57836040517f5274afe7000000000000000000000000000000000000000000000000000000008152600401612026919061312b565b60405180910390fd5b50505050565b6120ca60015f8154811061204c5761204b6135c7565b5b905f5260205f20015f9054906101000a900473ffffffffffffffffffffffffffffffffffffffff16620f424060046120849190613c1d565b7f000000000000000000000000000000000000000000000000000000000000000073ffffffffffffffffffffffffffffffffffffffff16611e8b9092919063ffffffff16565b61215f600180815481106120e1576120e06135c7565b5b905f5260205f20015f9054906101000a900473ffffffffffffffffffffffffffffffffffffffff16620f424060036121199190613c1d565b7f000000000000000000000000000000000000000000000000000000000000000073ffffffffffffffffffffffffffffffffffffffff16611e8b9092919063ffffffff16565b6121f56001600281548110612177576121766135c7565b5b905f5260205f20015f9054906101000a900473ffffffffffffffffffffffffffffffffffffffff16620f424060036121af9190613c1d565b7f000000000000000000000000000000000000000000000000000000000000000073ffffffffffffffffffffffffffffffffffffffff16611e8b9092919063ffffffff16565b5f62487ab090505f60038261220a9190613d0f565b905061229260025f81548110612223576122226135c7565b5b905f5260205f20015f9054906101000a900473ffffffffffffffffffffffffffffffffffffffff16827f000000000000000000000000000000000000000000000000000000000000000073ffffffffffffffffffffffffffffffffffffffff16611e8b9092919063ffffffff16565b61231960026001815481106122aa576122a96135c7565b5b905f5260205f20015f9054906101000a900473ffffffffffffffffffffffffffffffffffffffff16827f000000000000000000000000000000000000000000000000000000000000000073ffffffffffffffffffffffffffffffffffffffff16611e8b9092919063ffffffff16565b6123c1600280815481106123305761232f6135c7565b5b905f5260205f20015f9054906101000a900473ffffffffffffffffffffffffffffffffffffffff166003836123659190613c1d565b84612370919061352c565b8361237b9190613818565b7f000000000000000000000000000000000000000000000000000000000000000073ffffffffffffffffffffffffffffffffffffffff16611e8b9092919063ffffffff16565b5f5f90505b600381101561246557612458600382815481106123e6576123e56135c7565b5b905f5260205f20015f9054906101000a900473ffffffffffffffffffffffffffffffffffffffff166207a1207f000000000000000000000000000000000000000000000000000000000000000073ffffffffffffffffffffffffffffffffffffffff16611e8b9092919063ffffffff16565b80806001019150506123c6565b506124d560045f9054906101000a900473ffffffffffffffffffffffffffffffffffffffff16622625a07f000000000000000000000000000000000000000000000000000000000000000073ffffffffffffffffffffffffffffffffffffffff16611e8b9092919063ffffffff16565b61255060055f9054906101000a900473ffffffffffffffffffffffffffffffffffffffff16620f4240600561250a9190613c1d565b7f000000000000000000000000000000000000000000000000000000000000000073ffffffffffffffffffffffffffffffffffffffff16611e8b9092919063ffffffff16565b7f8959421a1320789a49eeec01a4750caf8a30733c3db14f000d84484df89300f963016a6570604051612583919061304b565b60405180910390a15050565b600160155f8473ffffffffffffffffffffffffffffffffffffffff1673ffffffffffffffffffffffffffffffffffffffff1681526020019081526020015f205f6101000a81548160ff0219169083151502179055508060165f8473ffffffffffffffffffffffffffffffffffffffff1673ffffffffffffffffffffffffffffffffffffffff1681526020019081526020015f205f6101000a81548173ffffffffffffffffffffffffffffffffffffffff021916908373ffffffffffffffffffffffffffffffffffffffff1602179055508073ffffffffffffffffffffffffffffffffffffffff168273ffffffffffffffffffffffffffffffffffffffff167f0a31ee9d46a828884b81003c8498156ea6aa15b9b54bdd0ef0b533d9eba57e5560405160405180910390a35050565b600260175f8373ffffffffffffffffffffffffffffffffffffffff1673ffffffffffffffffffffffffffffffffffffffff1681526020019081526020015f2054101580156127525750601b5f8273ffffffffffffffffffffffffffffffffffffffff1673ffffffffffffffffffffffffffffffffffffffff1681526020019081526020015f205f9054906101000a900460ff16155b156127c6576001601b5f8373ffffffffffffffffffffffffffffffffffffffff1673ffffffffffffffffffffffffffffffffffffffff1681526020019081526020015f205f6101000a81548160ff0219169083151502179055506127c581620f4240600a6127c09190613c1d565b612c81565b5b50565b5f60165f8373ffffffffffffffffffffffffffffffffffffffff1673ffffffffffffffffffffffffffffffffffffffff1681526020019081526020015f205f9054906101000a900473ffffffffffffffffffffffffffffffffffffffff1690505f5f90505b60068160ff161015612957575f73ffffffffffffffffffffffffffffffffffffffff168273ffffffffffffffffffffffffffffffffffffffff1603156129575760185f8373ffffffffffffffffffffffffffffffffffffffff1673ffffffffffffffffffffffffffffffffffffffff1681526020019081526020015f205f8154809291906128bb90613872565b91905055506128e28260068360ff16600681106128db576128da6135c7565b5b0154612c81565b6128eb82612e4f565b60165f8373ffffffffffffffffffffffffffffffffffffffff1673ffffffffffffffffffffffffffffffffffffffff1681526020019081526020015f205f9054906101000a900473ffffffffffffffffffffffffffffffffffffffff169150808060010191505061282e565b506129cd60165f8473ffffffffffffffffffffffffffffffffffffffff1673ffffffffffffffffffffffffffffffffffffffff1681526020019081526020015f205f9054906101000a900473ffffffffffffffffffffffffffffffffffffffff16620f4240600f6129c89190613c1d565b612c81565b5050565b5f5f5f9054906101000a900473ffffffffffffffffffffffffffffffffffffffff169050815f5f6101000a81548173ffffffffffffffffffffffffffffffffffffffff021916908373ffffffffffffffffffffffffffffffffffffffff1602179055508173ffffffffffffffffffffffffffffffffffffffff168173ffffffffffffffffffffffffffffffffffffffff167f8be0079c531659141344cd1fd0a4f28419497f9722a3daafe3b4186f6b6457e060405160405180910390a35050565b612a9a611e4a565b60015f60146101000a81548160ff0219169083151502179055507f62e78cea01bee320cd4e420270b5ea74000d11b0c9f74754ebdbfc544b05a258612add612bc9565b604051612aea919061312b565b60405180910390a1565b612afc612fba565b15612b33576040517f3ee5aeb500000000000000000000000000000000000000000000000000000000815260040160405180910390fd5b565b5f7f9b779b17422d0df92223018b32b4d1fa46e071723d6817e2486d003becc55f005f1b905090565b5f819050919050565b5f5f63a9059cbb60e01b9050604051815f525f1960601c86166004528460245260205f60445f5f8b5af1925060015f51148316612bbb578383151615612baf573d5f823e3d81fd5b5f873b113d1516831692505b806040525050949350505050565b5f33905090565b612bd8611267565b612c0e576040517f8dfc202b00000000000000000000000000000000000000000000000000000000815260040160405180910390fd5b565b5f5f6323b872dd60e01b9050604051815f525f1960601c87166004525f1960601c86166024528460445260205f60645f5f8c5af1925060015f51148316612c6e578383151615612c62573d5f823e3d81fd5b5f883b113d1516831692505b806040525f606052505095945050505050565b5f73ffffffffffffffffffffffffffffffffffffffff168273ffffffffffffffffffffffffffffffffffffffff161480612cba57505f81145b612e4b57806012541015612d7957600160145f6101000a81548160ff0219169083151502179055507ff22d87d6dd98004a3b9d4476c70fa88fccc84a4ef47c2db56fba3cb88edce62360125482612d11919061352c565b604051612d1e919061304b565b60405180910390a18173ffffffffffffffffffffffffffffffffffffffff167f887d98c391c925102ab08e6510469e3946622feba73cb2cc4795553a1e223f1c82604051612d6c9190613d89565b60405180910390a2612e4b565b8060125f828254612d8a919061352c565b925050819055508060195f8473ffffffffffffffffffffffffffffffffffffffff1673ffffffffffffffffffffffffffffffffffffffff1681526020019081526020015f205f828254612ddd9190613818565b925050819055508060135f828254612df59190613818565b925050819055508173ffffffffffffffffffffffffffffffffffffffff167f098780f78fba60e0edc6f2e1ff456143f9803c5bf9f2cb202bd715d69b2e4e9182604051612e42919061304b565b60405180910390a25b5050565b5f60185f8373ffffffffffffffffffffffffffffffffffffffff1673ffffffffffffffffffffffffffffffffffffffff1681526020019081526020015f205490505f5f90505b60068160ff161015612fb5575f600182612eaf9190613dc1565b6006612ebb9190613f24565b90505f5f8360ff166001901b601a5f8873ffffffffffffffffffffffffffffffffffffffff1673ffffffffffffffffffffffffffffffffffffffff1681526020019081526020015f205416149050818410158015612f165750805b15612fa6575f600c8460ff1660068110612f3357612f326135c7565b5b01549050806012541015612f4957505050612fb5565b8360ff166001901b601a5f8873ffffffffffffffffffffffffffffffffffffffff1673ffffffffffffffffffffffffffffffffffffffff1681526020019081526020015f205f8282541792505081905550612fa48682612c81565b505b50508080600101915050612e95565b505050565b5f6002612fcd612fc8612b35565b612b5e565b5f015414905090565b5f5ffd5b5f5ffd5b5f819050919050565b612ff081612fde565b8114612ffa575f5ffd5b50565b5f8135905061300b81612fe7565b92915050565b5f6020828403121561302657613025612fd6565b5b5f61303384828501612ffd565b91505092915050565b61304581612fde565b82525050565b5f60208201905061305e5f83018461303c565b92915050565b5f73ffffffffffffffffffffffffffffffffffffffff82169050919050565b5f61308d82613064565b9050919050565b61309d81613083565b81146130a7575f5ffd5b50565b5f813590506130b881613094565b92915050565b5f602082840312156130d3576130d2612fd6565b5b5f6130e0848285016130aa565b91505092915050565b5f8115159050919050565b6130fd816130e9565b82525050565b5f6020820190506131165f8301846130f4565b92915050565b61312581613083565b82525050565b5f60208201905061313e5f83018461311c565b92915050565b5f819050919050565b5f61316761316261315d84613064565b613144565b613064565b9050919050565b5f6131788261314d565b9050919050565b5f6131898261316e565b9050919050565b6131998161317f565b82525050565b5f6020820190506131b25f830184613190565b92915050565b5f5f604083850312156131ce576131cd612fd6565b5b5f6131db85828601612ffd565b92505060206131ec858286016130aa565b9150509250929050565b5f5f6040838503121561320c5761320b612fd6565b5b5f613219858286016130aa565b925050602061322a85828601612ffd565b9150509250929050565b5f61323e8261316e565b9050919050565b61324e81613234565b82525050565b5f6020820190506132675f830184613245565b92915050565b5f5ffd5b5f5ffd5b5f5ffd5b5f5f83601f84011261328e5761328d61326d565b5b8235905067ffffffffffffffff8111156132ab576132aa613271565b5b6020830191508360018202830111156132c7576132c6613275565b5b9250929050565b5f5f602083850312156132e4576132e3612fd6565b5b5f83013567ffffffffffffffff81111561330157613300612fda565b5b61330d85828601613279565b92509250509250929050565b5f6133238261316e565b9050919050565b61333381613319565b82525050565b5f60208201905061334c5f83018461332a565b92915050565b5f82825260208201905092915050565b7f5769746864726177616c204c6f636b65643a205265666572203220506172746e5f8201527f6572730000000000000000000000000000000000000000000000000000000000602082015250565b5f6133bc602383613352565b91506133c782613362565b604082019050919050565b5f6020820190508181035f8301526133e9816133b0565b9050919050565b7f4e6f204561726e696e67730000000000000000000000000000000000000000005f82015250565b5f613424600b83613352565b915061342f826133f0565b602082019050919050565b5f6020820190508181035f83015261345181613418565b9050919050565b5f8151905061346681612fe7565b92915050565b5f6020828403121561348157613480612fd6565b5b5f61348e84828501613458565b91505092915050565b7f436f6e7472616374204c6971756964697479204c6f77000000000000000000005f82015250565b5f6134cb601683613352565b91506134d682613497565b602082019050919050565b5f6020820190508181035f8301526134f8816134bf565b9050919050565b7f4e487b71000000000000000000000000000000000000000000000000000000005f52601160045260245ffd5b5f61353682612fde565b915061354183612fde565b9250828203905081811115613559576135586134ff565b5b92915050565b7f496e76616c696420636f6e6669670000000000000000000000000000000000005f82015250565b5f613593600e83613352565b915061359e8261355f565b602082019050919050565b5f6020820190508181035f8301526135c081613587565b9050919050565b7f4e487b71000000000000000000000000000000000000000000000000000000005f52603260045260245ffd5b7f41646d696e0000000000000000000000000000000000000000000000000000005f82015250565b5f613628600583613352565b9150613633826135f4565b602082019050919050565b5f6060820190508181035f8301526136558161361c565b9050613664602083018561303c565b613671604083018461311c565b9392505050565b7f416c7265616479205265676973746572656400000000000000000000000000005f82015250565b5f6136ac601283613352565b91506136b782613678565b602082019050919050565b5f6020820190508181035f8301526136d9816136a0565b9050919050565b7f496e76616c6964205265666572726572000000000000000000000000000000005f82015250565b5f613714601083613352565b915061371f826136e0565b602082019050919050565b5f6020820190508181035f83015261374181613708565b9050919050565b7f4665652d6f6e2d7472616e73666572206e6f7420737570706f727465640000005f82015250565b5f61377c601d83613352565b915061378782613748565b602082019050919050565b5f6020820190508181035f8301526137a981613770565b9050919050565b7f53797374656d20466565204d69736d61746368000000000000000000000000005f82015250565b5f6137e4601383613352565b91506137ef826137b0565b602082019050919050565b5f6020820190508181035f830152613811816137d8565b9050919050565b5f61382282612fde565b915061382d83612fde565b9250828201905080821115613845576138446134ff565b5b92915050565b5f60408201905061385e5f83018561311c565b61386b602083018461303c565b9392505050565b5f61387c82612fde565b91507fffffffffffffffffffffffffffffffffffffffffffffffffffffffffffffffff82036138ae576138ad6134ff565b5b600182019050919050565b7f46757475726500000000000000000000000000000000000000000000000000005f82015250565b5f6138ed600683613352565b91506138f8826138b9565b602082019050919050565b5f819050919050565b5f61392661392161391c84613903565b613144565b612fde565b9050919050565b6139368161390c565b82525050565b5f6060820190508181035f830152613953816138e1565b9050613962602083018561392d565b61396f604083018461311c565b9392505050565b7f4d757374206265207265676973746572656420666972737400000000000000005f82015250565b5f6139aa601883613352565b91506139b582613976565b602082019050919050565b5f6020820190508181035f8301526139d78161399e565b9050919050565b6139e7816130e9565b81146139f1575f5ffd5b50565b5f81519050613a02816139de565b92915050565b5f60208284031215613a1d57613a1c612fd6565b5b5f613a2a848285016139f4565b91505092915050565b7f416c7265616479206120564950000000000000000000000000000000000000005f82015250565b5f613a67600d83613352565b9150613a7282613a33565b602082019050919050565b5f6020820190508181035f830152613a9481613a5b565b9050919050565b828183375f83830152505050565b5f601f19601f8301169050919050565b5f613ac48385613352565b9350613ad1838584613a9b565b613ada83613aa9565b840190509392505050565b5f604082019050613af85f83018661311c565b8181036020830152613b0b818486613ab9565b9050949350505050565b7f53757065720000000000000000000000000000000000000000000000000000005f82015250565b5f613b49600583613352565b9150613b5482613b15565b602082019050919050565b5f6060820190508181035f830152613b7681613b3d565b9050613b85602083018561392d565b613b92604083018461311c565b9392505050565b7f5465616d446576000000000000000000000000000000000000000000000000005f82015250565b5f613bcd600783613352565b9150613bd882613b99565b602082019050919050565b5f6060820190508181035f830152613bfa81613bc1565b9050613c09602083018561303c565b613c16604083018461311c565b9392505050565b5f613c2782612fde565b9150613c3283612fde565b9250828202613c4081612fde565b91508282048414831517613c5757613c566134ff565b5b5092915050565b7f4d61696e740000000000000000000000000000000000000000000000000000005f82015250565b5f613c92600583613352565b9150613c9d82613c5e565b602082019050919050565b5f6060820190508181035f830152613cbf81613c86565b9050613cce602083018561303c565b613cdb604083018461311c565b9392505050565b7f4e487b71000000000000000000000000000000000000000000000000000000005f52601260045260245ffd5b5f613d1982612fde565b9150613d2483612fde565b925082613d3457613d33613ce2565b5b828204905092915050565b7f496e73756666696369656e7420547265617375727900000000000000000000005f82015250565b5f613d73601583613352565b9150613d7e82613d3f565b602082019050919050565b5f604082019050613d9c5f83018461303c565b8181036020830152613dad81613d67565b905092915050565b5f60ff82169050919050565b5f613dcb82613db5565b9150613dd683613db5565b9250828201905060ff811115613def57613dee6134ff565b5b92915050565b5f8160011c9050919050565b5f5f8291508390505b6001851115613e4a57808604811115613e2657613e256134ff565b5b6001851615613e355780820291505b8081029050613e4385613df5565b9450613e0a565b94509492505050565b5f82613e625760019050613f1d565b81613e6f575f9050613f1d565b8160018114613e855760028114613e8f57613ebe565b6001915050613f1d565b60ff841115613ea157613ea06134ff565b5b8360020a915084821115613eb857613eb76134ff565b5b50613f1d565b5060208310610133831016604e8410600b8410161715613ef35782820a905083811115613eee57613eed6134ff565b5b613f1d565b613f008484846001613e01565b92509050818404811115613f1757613f166134ff565b5b81810290505b9392505050565b5f613f2e82612fde565b9150613f3983613db5565b9250613f667fffffffffffffffffffffffffffffffffffffffffffffffffffffffffffffffff8484613e53565b90509291505056fea2646970667358221220b911d1a4c859b8a366fdd7789e21252dc1b9558248456e1cea8417f346b4f69464736f6c634300081e0033",
    "linkReferences": {}
  },
  "methodIdentifiers": {
    "DIRECT_BONUS()": "f4dcebb0",
    "INITIAL_REDEMPTION()": "dc561f84",
    "ONBOARDING_FEE()": "aa738d35",
    "SPAARK_GRANT()": "2a8f4cd1",
    "TOTAL_SYSTEM_FEES()": "2c898049",
    "VIP_PRICE()": "c8be4d9d",
    "achieverMask(address)": "fe8592ab",
    "achieverRewards(uint256)": "b3159436",
    "adminWallets(uint256)": "3216b1f9",
    "canWithdraw(address)": "19262d30",
    "directReferrals(address)": "24dd80ae",
    "emergencyRecover(address,uint256)": "9639011e",
    "futureProjectWallet()": "1e756e03",
    "insolvencyAlarm()": "d11e20c2",
    "levelCommission(uint256)": "0fedfe8b",
    "maxFutureRewards()": "b014aa49",
    "mintVIP(string)": "b42091de",
    "mlmTreasury()": "4145bd53",
    "owner()": "8da5cb5b",
    "pause()": "8456cb59",
    "paused()": "5c975abb",
    "referrerOf(address)": "d21cacdf",
    "register(address)": "4420e486",
    "registered(address)": "b2dd5c07",
    "remainingTreasury()": "8422917b",
    "renounceOwnership()": "715018a6",
    "spaark()": "f671e1be",
    "superWallet()": "c3fc7d24",
    "systemMaintWallets(uint256)": "8cebe6bc",
    "teamDevWallets(uint256)": "89ed710e",
    "totalLiabilities()": "f73579a9",
    "totalTeamSize(address)": "70c01d06",
    "transferOwnership(address)": "f2fde38b",
    "unpause()": "3f4ba83a",
    "updateAdminWallet(uint256,address)": "3f33e8ba",
    "updateFutureWallet(address)": "a39e7e23",
    "updateMaintWallet(uint256,address)": "f2a5a957",
    "updateSuperWallet(address)": "b8f2f0df",
    "updateTeamDevWallet(uint256,address)": "d9c2ec65",
    "usdt()": "2f48ab7d",
    "usdtEarnings(address)": "61417794",
    "vipNFT()": "9feb1cb9",
    "withdrawUSDT()": "362e496b"
  },
  "id": 51
}