{
  "abi": [
    {
      "type": "constructor",
      "inputs": [
        {
          "name": "initialOwner",
          "type": "address",
          "internalType": "address"
        }
      ],
      "stateMutability": "nonpayable"
    },
    {
      "type": "function",
      "name": "approve",
      "inputs": [
        {
          "name": "to",
          "type": "address",
          "internalType": "address"
        },
        {
          "name": "tokenId",
          "type": "uint256",
          "internalType": "uint256"
        }
      ],
      "outputs": [],
      "stateMutability": "nonpayable"
    },
    {
      "type": "function",
      "name": "balanceOf",
      "inputs": [
        {
          "name": "owner",
          "type": "address",
          "internalType": "address"
        }
      ],
      "outputs": [
        {
          "name": "",
          "type": "uint256",
          "internalType": "uint256"
        }
      ],
      "stateMutability": "view"
    },
    {
      "type": "function",
      "name": "burn",
      "inputs": [
        {
          "name": "tokenId",
          "type": "uint256",
          "internalType": "uint256"
        }
      ],
      "outputs": [],
      "stateMutability": "nonpayable"
    },
    {
      "type": "function",
      "name": "getApproved",
      "inputs": [
        {
          "name": "tokenId",
          "type": "uint256",
          "internalType": "uint256"
        }
      ],
      "outputs": [
        {
          "name": "",
          "type": "address",
          "internalType": "address"
        }
      ],
      "stateMutability": "view"
    },
    {
      "type": "function",
      "name": "hasVIP",
      "inputs": [
        {
          "name": "",
          "type": "address",
          "internalType": "address"
        }
      ],
      "outputs": [
        {
          "name": "",
          "type": "bool",
          "internalType": "bool"
        }
      ],
      "stateMutability": "view"
    },
    {
      "type": "function",
      "name": "isApprovedForAll",
      "inputs": [
        {
          "name": "owner",
          "type": "address",
          "internalType": "address"
        },
        {
          "name": "operator",
          "type": "address",
          "internalType": "address"
        }
      ],
      "outputs": [
        {
          "name": "",
          "type": "bool",
          "internalType": "bool"
        }
      ],
      "stateMutability": "view"
    },
    {
      "type": "function",
      "name": "mintVIP",
      "inputs": [
        {
          "name": "user",
          "type": "address",
          "internalType": "address"
        },
        {
          "name": "metadataURI",
          "type": "string",
          "internalType": "string"
        }
      ],
      "outputs": [],
      "stateMutability": "nonpayable"
    },
    {
      "type": "function",
      "name": "minters",
      "inputs": [
        {
          "name": "",
          "type": "address",
          "internalType": "address"
        }
      ],
      "outputs": [
        {
          "name": "",
          "type": "bool",
          "internalType": "bool"
        }
      ],
      "stateMutability": "view"
    },
    {
      "type": "function",
      "name": "name",
      "inputs": [],
      "outputs": [
        {
          "name": "",
          "type": "string",
          "internalType": "string"
        }
      ],
      "stateMutability": "view"
    },
    {
      "type": "function",
      "name": "nextTokenId",
      "inputs": [],
      "outputs": [
        {
          "name": "",
          "type": "uint256",
          "internalType": "uint256"
        }
      ],
      "stateMutability": "view"
    },
    {
      "type": "function",
      "name": "owner",
      "inputs": [],
      "outputs": [
        {
          "name": "",
          "type": "address",
          "internalType": "address"
        }
      ],
      "stateMutability": "view"
    },
    {
      "type": "function",
      "name": "ownerOf",
      "inputs": [
        {
          "name": "tokenId",
          "type": "uint256",
          "internalType": "uint256"
        }
      ],
      "outputs": [
        {
          "name": "",
          "type": "address",
          "internalType": "address"
        }
      ],
      "stateMutability": "view"
    },
    {
      "type": "function",
      "name": "renounceOwnership",
      "inputs": [],
      "outputs": [],
      "stateMutability": "nonpayable"
    },
    {
      "type": "function",
      "name": "safeTransferFrom",
      "inputs": [
        {
          "name": "from",
          "type": "address",
          "internalType": "address"
        },
        {
          "name": "to",
          "type": "address",
          "internalType": "address"
        },
        {
          "name": "tokenId",
          "type": "uint256",
          "internalType": "uint256"
        }
      ],
      "outputs": [],
      "stateMutability": "nonpayable"
    },
    {
      "type": "function",
      "name": "safeTransferFrom",
      "inputs": [
        {
          "name": "from",
          "type": "address",
          "internalType": "address"
        },
        {
          "name": "to",
          "type": "address",
          "internalType": "address"
        },
        {
          "name": "tokenId",
          "type": "uint256",
          "internalType": "uint256"
        },
        {
          "name": "data",
          "type": "bytes",
          "internalType": "bytes"
        }
      ],
      "outputs": [],
      "stateMutability": "nonpayable"
    },
    {
      "type": "function",
      "name": "setApprovalForAll",
      "inputs": [
        {
          "name": "operator",
          "type": "address",
          "internalType": "address"
        },
        {
          "name": "approved",
          "type": "bool",
          "internalType": "bool"
        }
      ],
      "outputs": [],
      "stateMutability": "nonpayable"
    },
    {
      "type": "function",
      "name": "setMinter",
      "inputs": [
        {
          "name": "minter",
          "type": "address",
          "internalType": "address"
        },
        {
          "name": "status",
          "type": "bool",
          "internalType": "bool"
        }
      ],
      "outputs": [],
      "stateMutability": "nonpayable"
    },
    {
      "type": "function",
      "name": "supportsInterface",
      "inputs": [
        {
          "name": "interfaceId",
          "type": "bytes4",
          "internalType": "bytes4"
        }
      ],
      "outputs": [
        {
          "name": "",
          "type": "bool",
          "internalType": "bool"
        }
      ],
      "stateMutability": "view"
    },
    {
      "type": "function",
      "name": "symbol",
      "inputs": [],
      "outputs": [
        {
          "name": "",
          "type": "string",
          "internalType": "string"
        }
      ],
      "stateMutability": "view"
    },
    {
      "type": "function",
      "name": "tokenURI",
      "inputs": [
        {
          "name": "tokenId",
          "type": "uint256",
          "internalType": "uint256"
        }
      ],
      "outputs": [
        {
          "name": "",
          "type": "string",
          "internalType": "string"
        }
      ],
      "stateMutability": "view"
    },
    {
      "type": "function",
      "name": "transferFrom",
      "inputs": [
        {
          "name": "from",
          "type": "address",
          "internalType": "address"
        },
        {
          "name": "to",
          "type": "address",
          "internalType": "address"
        },
        {
          "name": "tokenId",
          "type": "uint256",
          "internalType": "uint256"
        }
      ],
      "outputs": [],
      "stateMutability": "nonpayable"
    },
    {
      "type": "function",
      "name": "transferOwnership",
      "inputs": [
        {
          "name": "newOwner",
          "type": "address",
          "internalType": "address"
        }
      ],
      "outputs": [],
      "stateMutability": "nonpayable"
    },
    {
      "type": "event",
      "name": "Approval",
      "inputs": [
        {
          "name": "owner",
          "type": "address",
          "indexed": true,
          "internalType": "address"
        },
        {
          "name": "approved",
          "type": "address",
          "indexed": true,
          "internalType": "address"
        },
        {
          "name": "tokenId",
          "type": "uint256",
          "indexed": true,
          "internalType": "uint256"
        }
      ],
      "anonymous": false
    },
    {
      "type": "event",
      "name": "ApprovalForAll",
      "inputs": [
        {
          "name": "owner",
          "type": "address",
          "indexed": true,
          "internalType": "address"
        },
        {
          "name": "operator",
          "type": "address",
          "indexed": true,
          "internalType": "address"
        },
        {
          "name": "approved",
          "type": "bool",
          "indexed": false,
          "internalType": "bool"
        }
      ],
      "anonymous": false
    },
    {
      "type": "event",
      "name": "MinterUpdated",
      "inputs": [
        {
          "name": "minter",
          "type": "address",
          "indexed": true,
          "internalType": "address"
        },
        {
          "name": "status",
          "type": "bool",
          "indexed": false,
          "internalType": "bool"
        }
      ],
      "anonymous": false
    },
    {
      "type": "event",
      "name": "OwnershipTransferred",
      "inputs": [
        {
          "name": "previousOwner",
          "type": "address",
          "indexed": true,
          "internalType": "address"
        },
        {
          "name": "newOwner",
          "type": "address",
          "indexed": true,
          "internalType": "address"
        }
      ],
      "anonymous": false
    },
    {
      "type": "event",
      "name": "Transfer",
      "inputs": [
        {
          "name": "from",
          "type": "address",
          "indexed": true,
          "internalType": "address"
        },
        {
          "name": "to",
          "type": "address",
          "indexed": true,
          "internalType": "address"
        },
        {
          "name": "tokenId",
          "type": "uint256",
          "indexed": true,
          "internalType": "uint256"
        }
      ],
      "anonymous": false
    },
    {
      "type": "error",
      "name": "ERC721IncorrectOwner",
      "inputs": [
        {
          "name": "sender",
          "type": "address",
          "internalType": "address"
        },
        {
          "name": "tokenId",
          "type": "uint256",
          "internalType": "uint256"
        },
        {
          "name": "owner",
          "type": "address",
          "internalType": "address"
        }
      ]
    },
    {
      "type": "error",
      "name": "ERC721InsufficientApproval",
      "inputs": [
        {
          "name": "operator",
          "type": "address",
          "internalType": "address"
        },
        {
          "name": "tokenId",
          "type": "uint256",
          "internalType": "uint256"
        }
      ]
    },
    {
      "type": "error",
      "name": "ERC721InvalidApprover",
      "inputs": [
        {
          "name": "approver",
          "type": "address",
          "internalType": "address"
        }
      ]
    },
    {
      "type": "error",
      "name": "ERC721InvalidOperator",
      "inputs": [
        {
          "name": "operator",
          "type": "address",
          "internalType": "address"
        }
      ]
    },
    {
      "type": "error",
      "name": "ERC721InvalidOwner",
      "inputs": [
        {
          "name": "owner",
          "type": "address",
          "internalType": "address"
        }
      ]
    },
    {
      "type": "error",
      "name": "ERC721InvalidReceiver",
      "inputs": [
        {
          "name": "receiver",
          "type": "address",
          "internalType": "address"
        }
      ]
    },
    {
      "type": "error",
      "name": "ERC721InvalidSender",
      "inputs": [
        {
          "name": "sender",
          "type": "address",
          "internalType": "address"
        }
      ]
    },
    {
      "type": "error",
      "name": "ERC721NonexistentToken",
      "inputs": [
        {
          "name": "tokenId",
          "type": "uint256",
          "internalType": "uint256"
        }
      ]
    },
    {
      "type": "error",
      "name": "OwnableInvalidOwner",
      "inputs": [
        {
          "name": "owner",
          "type": "address",
          "internalType": "address"
        }
      ]
    },
    {
      "type": "error",
      "name": "OwnableUnauthorizedAccount",
      "inputs": [
        {
          "name": "account",
          "type": "address",
          "internalType": "address"
        }
      ]
    }
  ],
  "bytecode": {
    "object": "0x608060405234801561000f575f5ffd5b50604051612b10380380612b1083398181016040528101906100319190610266565b806040518060400160405280600a81526020017f53706161726b20564950000000000000000000000000000000000000000000008152506040518060400160405280600981526020017f53504141524b5649500000000000000000000000000000000000000000000000815250815f90816100ac91906104ce565b5080600190816100bc91906104ce565b5050505f73ffffffffffffffffffffffffffffffffffffffff168173ffffffffffffffffffffffffffffffffffffffff160361012f575f6040517f1e4fbdf700000000000000000000000000000000000000000000000000000000815260040161012691906105ac565b60405180910390fd5b61013e8161014560201b60201c565b50506105c5565b5f60065f9054906101000a900473ffffffffffffffffffffffffffffffffffffffff1690508160065f6101000a81548173ffffffffffffffffffffffffffffffffffffffff021916908373ffffffffffffffffffffffffffffffffffffffff1602179055508173ffffffffffffffffffffffffffffffffffffffff168173ffffffffffffffffffffffffffffffffffffffff167f8be0079c531659141344cd1fd0a4f28419497f9722a3daafe3b4186f6b6457e060405160405180910390a35050565b5f5ffd5b5f73ffffffffffffffffffffffffffffffffffffffff82169050919050565b5f6102358261020c565b9050919050565b6102458161022b565b811461024f575f5ffd5b50565b5f815190506102608161023c565b92915050565b5f6020828403121561027b5761027a610208565b5b5f61028884828501610252565b91505092915050565b5f81519050919050565b7f4e487b71000000000000000000000000000000000000000000000000000000005f52604160045260245ffd5b7f4e487b71000000000000000000000000000000000000000000000000000000005f52602260045260245ffd5b5f600282049050600182168061030c57607f821691505b60208210810361031f5761031e6102c8565b5b50919050565b5f819050815f5260205f209050919050565b5f6020601f8301049050919050565b5f82821b905092915050565b5f600883026103817fffffffffffffffffffffffffffffffffffffffffffffffffffffffffffffffff82610346565b61038b8683610346565b95508019841693508086168417925050509392505050565b5f819050919050565b5f819050919050565b5f6103cf6103ca6103c5846103a3565b6103ac565b6103a3565b9050919050565b5f819050919050565b6103e8836103b5565b6103fc6103f4826103d6565b848454610352565b825550505050565b5f5f905090565b610413610404565b61041e8184846103df565b505050565b5b81811015610441576104365f8261040b565b600181019050610424565b5050565b601f8211156104865761045781610325565b61046084610337565b8101602085101561046f578190505b61048361047b85610337565b830182610423565b50505b505050565b5f82821c905092915050565b5f6104a65f198460080261048b565b1980831691505092915050565b5f6104be8383610497565b9150826002028217905092915050565b6104d782610291565b67ffffffffffffffff8111156104f0576104ef61029b565b5b6104fa82546102f5565b610505828285610445565b5f60209050601f831160018114610536575f8415610524578287015190505b61052e85826104b3565b865550610595565b601f19841661054486610325565b5f5b8281101561056b57848901518255600182019150602085019450602081019050610546565b868310156105885784890151610584601f891682610497565b8355505b6001600288020188555050505b505050505050565b6105a68161022b565b82525050565b5f6020820190506105bf5f83018461059d565b92915050565b61253e806105d25f395ff3fe608060405234801561000f575f5ffd5b5060043610610140575f3560e01c8063715018a6116100b6578063b88d4fde1161007a578063b88d4fde1461035e578063c87b56dd1461037a578063cf456ae7146103aa578063e985e9c5146103c6578063f2fde38b146103f6578063f46eccc41461041257610140565b8063715018a6146102de57806375794a3c146102e85780638da5cb5b1461030657806395d89b4114610324578063a22cb4651461034257610140565b806342842e0e1161010857806342842e0e146101fa57806342966c681461021657806359abfb8014610232578063634a4164146102625780636352211e1461027e57806370a08231146102ae57610140565b806301ffc9a71461014457806306fdde0314610174578063081812fc14610192578063095ea7b3146101c257806323b872dd146101de575b5f5ffd5b61015e600480360381019061015991906119fe565b610442565b60405161016b9190611a43565b60405180910390f35b61017c610523565b6040516101899190611acc565b60405180910390f35b6101ac60048036038101906101a79190611b1f565b6105b2565b6040516101b99190611b89565b60405180910390f35b6101dc60048036038101906101d79190611bcc565b6105cd565b005b6101f860048036038101906101f39190611c0a565b6105e3565b005b610214600480360381019061020f9190611c0a565b6106e2565b005b610230600480360381019061022b9190611b1f565b610701565b005b61024c60048036038101906102479190611c5a565b610717565b6040516102599190611a43565b60405180910390f35b61027c60048036038101906102779190611ce6565b610734565b005b61029860048036038101906102939190611b1f565b6108e4565b6040516102a59190611b89565b60405180910390f35b6102c860048036038101906102c39190611c5a565b6108f5565b6040516102d59190611d52565b60405180910390f35b6102e66109ab565b005b6102f06109be565b6040516102fd9190611d52565b60405180910390f35b61030e6109c4565b60405161031b9190611b89565b60405180910390f35b61032c6109ec565b6040516103399190611acc565b60405180910390f35b61035c60048036038101906103579190611d95565b610a7c565b005b61037860048036038101906103739190611efb565b610a92565b005b610394600480360381019061038f9190611b1f565b610ab7565b6040516103a19190611acc565b60405180910390f35b6103c460048036038101906103bf9190611d95565b610b62565b005b6103e060048036038101906103db9190611f7b565b610c10565b6040516103ed9190611a43565b60405180910390f35b610410600480360381019061040b9190611c5a565b610c9e565b005b61042c60048036038101906104279190611c5a565b610d22565b6040516104399190611a43565b60405180910390f35b5f7f80ac58cd000000000000000000000000000000000000000000000000000000007bffffffffffffffffffffffffffffffffffffffffffffffffffffffff1916827bffffffffffffffffffffffffffffffffffffffffffffffffffffffff1916148061050c57507f5b5e139f000000000000000000000000000000000000000000000000000000007bffffffffffffffffffffffffffffffffffffffffffffffffffffffff1916827bffffffffffffffffffffffffffffffffffffffffffffffffffffffff1916145b8061051c575061051b82610d3f565b5b9050919050565b60605f805461053190611fe6565b80601f016020809104026020016040519081016040528092919081815260200182805461055d90611fe6565b80156105a85780601f1061057f576101008083540402835291602001916105a8565b820191905f5260205f20905b81548152906001019060200180831161058b57829003601f168201915b5050505050905090565b5f6105bc82610da8565b506105c682610e2e565b9050919050565b6105df82826105da610e67565b610e6e565b5050565b5f73ffffffffffffffffffffffffffffffffffffffff168273ffffffffffffffffffffffffffffffffffffffff1603610653575f6040517f64a0ae9200000000000000000000000000000000000000000000000000000000815260040161064a9190611b89565b60405180910390fd5b5f6106668383610661610e67565b610e80565b90508373ffffffffffffffffffffffffffffffffffffffff168173ffffffffffffffffffffffffffffffffffffffff16146106dc578382826040517f64283d7b0000000000000000000000000000000000000000000000000000000081526004016106d393929190612016565b60405180910390fd5b50505050565b6106fc83838360405180602001604052805f815250610a92565b505050565b6107135f8261070e610e67565b610e80565b5050565b6008602052805f5260405f205f915054906101000a900460ff1681565b60095f3373ffffffffffffffffffffffffffffffffffffffff1673ffffffffffffffffffffffffffffffffffffffff1681526020019081526020015f205f9054906101000a900460ff166107bd576040517f08c379a00000000000000000000000000000000000000000000000000000000081526004016107b490612095565b60405180910390fd5b60085f8473ffffffffffffffffffffffffffffffffffffffff1673ffffffffffffffffffffffffffffffffffffffff1681526020019081526020015f205f9054906101000a900460ff1615610847576040517f08c379a000000000000000000000000000000000000000000000000000000000815260040161083e906120fd565b60405180910390fd5b5f60075f815461085690612148565b9190508190559050600160085f8673ffffffffffffffffffffffffffffffffffffffff1673ffffffffffffffffffffffffffffffffffffffff1681526020019081526020015f205f6101000a81548160ff0219169083151502179055506108bd848261108b565b8282600a5f8481526020019081526020015f2091826108dd929190612339565b5050505050565b5f6108ee82610da8565b9050919050565b5f5f73ffffffffffffffffffffffffffffffffffffffff168273ffffffffffffffffffffffffffffffffffffffff1603610966575f6040517f89c62b6400000000000000000000000000000000000000000000000000000000815260040161095d9190611b89565b60405180910390fd5b60035f8373ffffffffffffffffffffffffffffffffffffffff1673ffffffffffffffffffffffffffffffffffffffff1681526020019081526020015f20549050919050565b6109b36110a8565b6109bc5f61112f565b565b60075481565b5f60065f9054906101000a900473ffffffffffffffffffffffffffffffffffffffff16905090565b6060600180546109fb90611fe6565b80601f0160208091040260200160405190810160405280929190818152602001828054610a2790611fe6565b8015610a725780601f10610a4957610100808354040283529160200191610a72565b820191905f5260205f20905b815481529060010190602001808311610a5557829003601f168201915b5050505050905090565b610a8e610a87610e67565b83836111f2565b5050565b610a9d8484846105e3565b610ab1610aa8610e67565b8585858561135b565b50505050565b6060610ac282610da8565b50600a5f8381526020019081526020015f208054610adf90611fe6565b80601f0160208091040260200160405190810160405280929190818152602001828054610b0b90611fe6565b8015610b565780601f10610b2d57610100808354040283529160200191610b56565b820191905f5260205f20905b815481529060010190602001808311610b3957829003601f168201915b50505050509050919050565b610b6a6110a8565b8060095f8473ffffffffffffffffffffffffffffffffffffffff1673ffffffffffffffffffffffffffffffffffffffff1681526020019081526020015f205f6101000a81548160ff0219169083151502179055508173ffffffffffffffffffffffffffffffffffffffff167fb21afb9ce9be0a676f8f317ff0ca072fb89a4f8ce2d1b6fe80f8755c14f1cb1982604051610c049190611a43565b60405180910390a25050565b5f60055f8473ffffffffffffffffffffffffffffffffffffffff1673ffffffffffffffffffffffffffffffffffffffff1681526020019081526020015f205f8373ffffffffffffffffffffffffffffffffffffffff1673ffffffffffffffffffffffffffffffffffffffff1681526020019081526020015f205f9054906101000a900460ff16905092915050565b610ca66110a8565b5f73ffffffffffffffffffffffffffffffffffffffff168173ffffffffffffffffffffffffffffffffffffffff1603610d16575f6040517f1e4fbdf7000000000000000000000000000000000000000000000000000000008152600401610d0d9190611b89565b60405180910390fd5b610d1f8161112f565b50565b6009602052805f5260405f205f915054906101000a900460ff1681565b5f7f01ffc9a7000000000000000000000000000000000000000000000000000000007bffffffffffffffffffffffffffffffffffffffffffffffffffffffff1916827bffffffffffffffffffffffffffffffffffffffffffffffffffffffff1916149050919050565b5f5f610db383611507565b90505f73ffffffffffffffffffffffffffffffffffffffff168173ffffffffffffffffffffffffffffffffffffffff1603610e2557826040517f7e273289000000000000000000000000000000000000000000000000000000008152600401610e1c9190611d52565b60405180910390fd5b80915050919050565b5f60045f8381526020019081526020015f205f9054906101000a900473ffffffffffffffffffffffffffffffffffffffff169050919050565b5f33905090565b610e7b8383836001611540565b505050565b5f5f610e8b84611507565b90505f73ffffffffffffffffffffffffffffffffffffffff168373ffffffffffffffffffffffffffffffffffffffff1614610ecc57610ecb8184866116ff565b5b5f73ffffffffffffffffffffffffffffffffffffffff168173ffffffffffffffffffffffffffffffffffffffff1614610f5757610f0b5f855f5f611540565b600160035f8373ffffffffffffffffffffffffffffffffffffffff1673ffffffffffffffffffffffffffffffffffffffff1681526020019081526020015f205f82825403925050819055505b5f73ffffffffffffffffffffffffffffffffffffffff168573ffffffffffffffffffffffffffffffffffffffff1614610fd657600160035f8773ffffffffffffffffffffffffffffffffffffffff1673ffffffffffffffffffffffffffffffffffffffff1681526020019081526020015f205f82825401925050819055505b8460025f8681526020019081526020015f205f6101000a81548173ffffffffffffffffffffffffffffffffffffffff021916908373ffffffffffffffffffffffffffffffffffffffff160217905550838573ffffffffffffffffffffffffffffffffffffffff168273ffffffffffffffffffffffffffffffffffffffff167fddf252ad1be2c89b69c2b068fc378daa952ba7f163c4a11628f55a4df523b3ef60405160405180910390a4809150509392505050565b6110a4828260405180602001604052805f8152506117c2565b5050565b6110b0610e67565b73ffffffffffffffffffffffffffffffffffffffff166110ce6109c4565b73ffffffffffffffffffffffffffffffffffffffff161461112d576110f1610e67565b6040517f118cdaa70000000000000000000000000000000000000000000000000000000081526004016111249190611b89565b60405180910390fd5b565b5f60065f9054906101000a900473ffffffffffffffffffffffffffffffffffffffff1690508160065f6101000a81548173ffffffffffffffffffffffffffffffffffffffff021916908373ffffffffffffffffffffffffffffffffffffffff1602179055508173ffffffffffffffffffffffffffffffffffffffff168173ffffffffffffffffffffffffffffffffffffffff167f8be0079c531659141344cd1fd0a4f28419497f9722a3daafe3b4186f6b6457e060405160405180910390a35050565b5f73ffffffffffffffffffffffffffffffffffffffff168273ffffffffffffffffffffffffffffffffffffffff160361126257816040517f5b08ba180000000000000000000000000000000000000000000000000000000081526004016112599190611b89565b60405180910390fd5b8060055f8573ffffffffffffffffffffffffffffffffffffffff1673ffffffffffffffffffffffffffffffffffffffff1681526020019081526020015f205f8473ffffffffffffffffffffffffffffffffffffffff1673ffffffffffffffffffffffffffffffffffffffff1681526020019081526020015f205f6101000a81548160ff0219169083151502179055508173ffffffffffffffffffffffffffffffffffffffff168373ffffffffffffffffffffffffffffffffffffffff167f17307eab39ab6107e8899845ad3d59bd9653f200f220920489ca2b5937696c318360405161134e9190611a43565b60405180910390a3505050565b5f8373ffffffffffffffffffffffffffffffffffffffff163b1115611500578273ffffffffffffffffffffffffffffffffffffffff1663150b7a02868685856040518563ffffffff1660e01b81526004016113b99493929190612458565b6020604051808303815f875af19250505080156113f457506040513d601f19601f820116820180604052508101906113f191906124b6565b60015b611475573d805f8114611422576040519150601f19603f3d011682016040523d82523d5f602084013e611427565b606091505b505f81510361146d57836040517f64a0ae920000000000000000000000000000000000000000000000000000000081526004016114649190611b89565b60405180910390fd5b805160208201fd5b63150b7a0260e01b7bffffffffffffffffffffffffffffffffffffffffffffffffffffffff1916817bffffffffffffffffffffffffffffffffffffffffffffffffffffffff1916146114fe57836040517f64a0ae920000000000000000000000000000000000000000000000000000000081526004016114f59190611b89565b60405180910390fd5b505b5050505050565b5f60025f8381526020019081526020015f205f9054906101000a900473ffffffffffffffffffffffffffffffffffffffff169050919050565b808061157857505f73ffffffffffffffffffffffffffffffffffffffff168273ffffffffffffffffffffffffffffffffffffffff1614155b156116aa575f61158784610da8565b90505f73ffffffffffffffffffffffffffffffffffffffff168373ffffffffffffffffffffffffffffffffffffffff16141580156115f157508273ffffffffffffffffffffffffffffffffffffffff168173ffffffffffffffffffffffffffffffffffffffff1614155b801561160457506116028184610c10565b155b1561164657826040517fa9fbf51f00000000000000000000000000000000000000000000000000000000815260040161163d9190611b89565b60405180910390fd5b81156116a857838573ffffffffffffffffffffffffffffffffffffffff168273ffffffffffffffffffffffffffffffffffffffff167f8c5be1e5ebec7d5bd14f71427d1e84f3dd0314c0f7b2291e5b200ac8c7c3b92560405160405180910390a45b505b8360045f8581526020019081526020015f205f6101000a81548173ffffffffffffffffffffffffffffffffffffffff021916908373ffffffffffffffffffffffffffffffffffffffff16021790555050505050565b61170a8383836117e5565b6117bd575f73ffffffffffffffffffffffffffffffffffffffff168373ffffffffffffffffffffffffffffffffffffffff160361177e57806040517f7e2732890000000000000000000000000000000000000000000000000000000081526004016117759190611d52565b60405180910390fd5b81816040517f177e802f0000000000000000000000000000000000000000000000000000000081526004016117b49291906124e1565b60405180910390fd5b505050565b6117cc83836118a5565b6117e06117d7610e67565b5f85858561135b565b505050565b5f5f73ffffffffffffffffffffffffffffffffffffffff168373ffffffffffffffffffffffffffffffffffffffff161415801561189c57508273ffffffffffffffffffffffffffffffffffffffff168473ffffffffffffffffffffffffffffffffffffffff16148061185d575061185c8484610c10565b5b8061189b57508273ffffffffffffffffffffffffffffffffffffffff1661188383610e2e565b73ffffffffffffffffffffffffffffffffffffffff16145b5b90509392505050565b5f73ffffffffffffffffffffffffffffffffffffffff168273ffffffffffffffffffffffffffffffffffffffff1603611915575f6040517f64a0ae9200000000000000000000000000000000000000000000000000000000815260040161190c9190611b89565b60405180910390fd5b5f61192183835f610e80565b90505f73ffffffffffffffffffffffffffffffffffffffff168173ffffffffffffffffffffffffffffffffffffffff1614611993575f6040517f73c6ac6e00000000000000000000000000000000000000000000000000000000815260040161198a9190611b89565b60405180910390fd5b505050565b5f604051905090565b5f5ffd5b5f5ffd5b5f7fffffffff0000000000000000000000000000000000000000000000000000000082169050919050565b6119dd816119a9565b81146119e7575f5ffd5b50565b5f813590506119f8816119d4565b92915050565b5f60208284031215611a1357611a126119a1565b5b5f611a20848285016119ea565b91505092915050565b5f8115159050919050565b611a3d81611a29565b82525050565b5f602082019050611a565f830184611a34565b92915050565b5f81519050919050565b5f82825260208201905092915050565b8281835e5f83830152505050565b5f601f19601f8301169050919050565b5f611a9e82611a5c565b611aa88185611a66565b9350611ab8818560208601611a76565b611ac181611a84565b840191505092915050565b5f6020820190508181035f830152611ae48184611a94565b905092915050565b5f819050919050565b611afe81611aec565b8114611b08575f5ffd5b50565b5f81359050611b1981611af5565b92915050565b5f60208284031215611b3457611b336119a1565b5b5f611b4184828501611b0b565b91505092915050565b5f73ffffffffffffffffffffffffffffffffffffffff82169050919050565b5f611b7382611b4a565b9050919050565b611b8381611b69565b82525050565b5f602082019050611b9c5f830184611b7a565b92915050565b611bab81611b69565b8114611bb5575f5ffd5b50565b5f81359050611bc681611ba2565b92915050565b5f5f60408385031215611be257611be16119a1565b5b5f611bef85828601611bb8565b9250506020611c0085828601611b0b565b9150509250929050565b5f5f5f60608486031215611c2157611c206119a1565b5b5f611c2e86828701611bb8565b9350506020611c3f86828701611bb8565b9250506040611c5086828701611b0b565b9150509250925092565b5f60208284031215611c6f57611c6e6119a1565b5b5f611c7c84828501611bb8565b91505092915050565b5f5ffd5b5f5ffd5b5f5ffd5b5f5f83601f840112611ca657611ca5611c85565b5b8235905067ffffffffffffffff811115611cc357611cc2611c89565b5b602083019150836001820283011115611cdf57611cde611c8d565b5b9250929050565b5f5f5f60408486031215611cfd57611cfc6119a1565b5b5f611d0a86828701611bb8565b935050602084013567ffffffffffffffff811115611d2b57611d2a6119a5565b5b611d3786828701611c91565b92509250509250925092565b611d4c81611aec565b82525050565b5f602082019050611d655f830184611d43565b92915050565b611d7481611a29565b8114611d7e575f5ffd5b50565b5f81359050611d8f81611d6b565b92915050565b5f5f60408385031215611dab57611daa6119a1565b5b5f611db885828601611bb8565b9250506020611dc985828601611d81565b9150509250929050565b5f5ffd5b7f4e487b71000000000000000000000000000000000000000000000000000000005f52604160045260245ffd5b611e0d82611a84565b810181811067ffffffffffffffff82111715611e2c57611e2b611dd7565b5b80604052505050565b5f611e3e611998565b9050611e4a8282611e04565b919050565b5f67ffffffffffffffff821115611e6957611e68611dd7565b5b611e7282611a84565b9050602081019050919050565b828183375f83830152505050565b5f611e9f611e9a84611e4f565b611e35565b905082815260208101848484011115611ebb57611eba611dd3565b5b611ec6848285611e7f565b509392505050565b5f82601f830112611ee257611ee1611c85565b5b8135611ef2848260208601611e8d565b91505092915050565b5f5f5f5f60808587031215611f1357611f126119a1565b5b5f611f2087828801611bb8565b9450506020611f3187828801611bb8565b9350506040611f4287828801611b0b565b925050606085013567ffffffffffffffff811115611f6357611f626119a5565b5b611f6f87828801611ece565b91505092959194509250565b5f5f60408385031215611f9157611f906119a1565b5b5f611f9e85828601611bb8565b9250506020611faf85828601611bb8565b9150509250929050565b7f4e487b71000000000000000000000000000000000000000000000000000000005f52602260045260245ffd5b5f6002820490506001821680611ffd57607f821691505b6020821081036120105761200f611fb9565b5b50919050565b5f6060820190506120295f830186611b7a565b6120366020830185611d43565b6120436040830184611b7a565b949350505050565b7f53706161726b5649503a204e6f7420617574686f72697a6564000000000000005f82015250565b5f61207f601983611a66565b915061208a8261204b565b602082019050919050565b5f6020820190508181035f8301526120ac81612073565b9050919050565b7f53706161726b5649503a20416c7265616479206120564950206d656d626572005f82015250565b5f6120e7601f83611a66565b91506120f2826120b3565b602082019050919050565b5f6020820190508181035f830152612114816120db565b9050919050565b7f4e487b71000000000000000000000000000000000000000000000000000000005f52601160045260245ffd5b5f61215282611aec565b91507fffffffffffffffffffffffffffffffffffffffffffffffffffffffffffffffff82036121845761218361211b565b5b600182019050919050565b5f82905092915050565b5f819050815f5260205f209050919050565b5f6020601f8301049050919050565b5f82821b905092915050565b5f600883026121f57fffffffffffffffffffffffffffffffffffffffffffffffffffffffffffffffff826121ba565b6121ff86836121ba565b95508019841693508086168417925050509392505050565b5f819050919050565b5f61223a61223561223084611aec565b612217565b611aec565b9050919050565b5f819050919050565b61225383612220565b61226761225f82612241565b8484546121c6565b825550505050565b5f5f905090565b61227e61226f565b61228981848461224a565b505050565b5b818110156122ac576122a15f82612276565b60018101905061228f565b5050565b601f8211156122f1576122c281612199565b6122cb846121ab565b810160208510156122da578190505b6122ee6122e6856121ab565b83018261228e565b50505b505050565b5f82821c905092915050565b5f6123115f19846008026122f6565b1980831691505092915050565b5f6123298383612302565b9150826002028217905092915050565b612343838361218f565b67ffffffffffffffff81111561235c5761235b611dd7565b5b6123668254611fe6565b6123718282856122b0565b5f601f83116001811461239e575f841561238c578287013590505b612396858261231e565b8655506123fd565b601f1984166123ac86612199565b5f5b828110156123d3578489013582556001820191506020850194506020810190506123ae565b868310156123f057848901356123ec601f891682612302565b8355505b6001600288020188555050505b50505050505050565b5f81519050919050565b5f82825260208201905092915050565b5f61242a82612406565b6124348185612410565b9350612444818560208601611a76565b61244d81611a84565b840191505092915050565b5f60808201905061246b5f830187611b7a565b6124786020830186611b7a565b6124856040830185611d43565b81810360608301526124978184612420565b905095945050505050565b5f815190506124b0816119d4565b92915050565b5f602082840312156124cb576124ca6119a1565b5b5f6124d8848285016124a2565b91505092915050565b5f6040820190506124f45f830185611b7a565b6125016020830184611d43565b939250505056fea2646970667358221220655f564f4b3ca6b1b51e576d600443be04dca842ebeaac19fca098a684c2941d64736f6c634300081e0033",
    "linkReferences": {}
  },
  "methodIdentifiers": {
    "approve(address,uint256)": "095ea7b3",
    "balanceOf(address)": "70a08231",
    "burn(uint256)": "42966c68",
    "getApproved(uint256)": "081812fc",
    "hasVIP(address)": "59abfb80",
    "isApprovedForAll(address,address)": "e985e9c5",
    "mintVIP(address,string)": "634a4164",
    "minters(address)": "f46eccc4",
    "name()": "06fdde03",
    "nextTokenId()": "75794a3c",
    "owner()": "8da5cb5b",
    "ownerOf(uint256)": "6352211e",
    "renounceOwnership()": "715018a6",
    "safeTransferFrom(address,address,uint256)": "42842e0e",
    "safeTransferFrom(address,address,uint256,bytes)": "b88d4fde",
    "setApprovalForAll(address,bool)": "a22cb465",
    "setMinter(address,bool)": "cf456ae7",
    "supportsInterface(bytes4)": "01ffc9a7",
    "symbol()": "95d89b41",
    "tokenURI(uint256)": "c87b56dd",
    "transferFrom(address,address,uint256)": "23b872dd",
    "transferOwnership(address)": "f2fde38b"
  },
  "id": 52
}